{
  "address": "0x0a46FF05721D1eC08e5312285379425cD7277C20",
  "abi": [
    {
      "inputs": [
        {
          "internalType": "address",
          "name": "priceFeedAdress",
          "type": "address"
        }
      ],
      "stateMutability": "nonpayable",
      "type": "constructor"
    },
    {
      "inputs": [],
      "name": "FundMe__NotOwner",
      "type": "error"
    },
    {
      "inputs": [],
      "name": "MINIMUM_USD",
      "outputs": [
        {
          "internalType": "uint256",
          "name": "",
          "type": "uint256"
        }
      ],
      "stateMutability": "view",
      "type": "function"
    },
    {
      "inputs": [],
      "name": "cheaperWithdraw",
      "outputs": [],
      "stateMutability": "payable",
      "type": "function"
    },
    {
      "inputs": [],
      "name": "fund",
      "outputs": [],
      "stateMutability": "payable",
      "type": "function"
    },
    {
      "inputs": [
        {
          "internalType": "address",
          "name": "funder",
          "type": "address"
        }
      ],
      "name": "getAddressToAmountFunded",
      "outputs": [
        {
          "internalType": "uint256",
          "name": "",
          "type": "uint256"
        }
      ],
      "stateMutability": "view",
      "type": "function"
    },
    {
      "inputs": [],
      "name": "getAmountFunded",
      "outputs": [
        {
          "internalType": "uint256",
          "name": "",
          "type": "uint256"
        }
      ],
      "stateMutability": "view",
      "type": "function"
    },
    {
      "inputs": [
        {
          "internalType": "uint256",
          "name": "index",
          "type": "uint256"
        }
      ],
      "name": "getFunder",
      "outputs": [
        {
          "internalType": "address",
          "name": "",
          "type": "address"
        }
      ],
      "stateMutability": "view",
      "type": "function"
    },
    {
      "inputs": [],
      "name": "getNumberBackers",
      "outputs": [
        {
          "internalType": "uint256",
          "name": "",
          "type": "uint256"
        }
      ],
      "stateMutability": "view",
      "type": "function"
    },
    {
      "inputs": [],
      "name": "getOwner",
      "outputs": [
        {
          "internalType": "address",
          "name": "",
          "type": "address"
        }
      ],
      "stateMutability": "view",
      "type": "function"
    },
    {
      "inputs": [],
      "name": "getPriceFeed",
      "outputs": [
        {
          "internalType": "contract AggregatorV3Interface",
          "name": "",
          "type": "address"
        }
      ],
      "stateMutability": "view",
      "type": "function"
    },
    {
      "inputs": [],
      "name": "withdraw",
      "outputs": [],
      "stateMutability": "nonpayable",
      "type": "function"
    }
  ],
  "transactionHash": "0x2e0c8dc39b6cae63e71afa94db80213a9de3288f156bbb1a67ee6a56cd9768fc",
  "args": [
    "0xd4a33860578de61dbabdc8bfdb98fd742fa7028e"
  ],
  "numDeployments": 5,
  "solcInputHash": "907fe6efeedf77a181a8afc0eebf47e8",
  "bytecode": "0x60a06040523480156200001157600080fd5b506040516200137338038062001373833981810160405281019062000037919062000128565b3373ffffffffffffffffffffffffffffffffffffffff1660808173ffffffffffffffffffffffffffffffffffffffff1660601b8152505080600360006101000a81548173ffffffffffffffffffffffffffffffffffffffff021916908373ffffffffffffffffffffffffffffffffffffffff1602179055506000600281905550506200015a565b600080fd5b600073ffffffffffffffffffffffffffffffffffffffff82169050919050565b6000620000f082620000c3565b9050919050565b6200010281620000e3565b81146200010e57600080fd5b50565b6000815190506200012281620000f7565b92915050565b600060208284031215620001415762000140620000be565b5b6000620001518482850162000111565b91505092915050565b60805160601c6111e56200018e60003960008181610266015281816104c101528181610663015261085901526111e56000f3fe6080604052600436106100915760003560e01c8063893d20e811610059578063893d20e81461016b5780639e87a5cd14610196578063b60d4288146101c1578063be2693f0146101cb578063d7b4750c146101d557610091565b80630343fb25146100965780632c5b11fb146100d35780633ccfd60b146100fe578063666bfff5146101155780636b69a59214610140575b600080fd5b3480156100a257600080fd5b506100bd60048036038101906100b89190610b1d565b610212565b6040516100ca9190610b63565b60405180910390f35b3480156100df57600080fd5b506100e861025a565b6040516100f59190610b63565b60405180910390f35b34801561010a57600080fd5b50610113610264565b005b34801561012157600080fd5b5061012a6104a4565b6040516101379190610b63565b60405180910390f35b34801561014c57600080fd5b506101556104b1565b6040516101629190610b63565b60405180910390f35b34801561017757600080fd5b506101806104bd565b60405161018d9190610b8d565b60405180910390f35b3480156101a257600080fd5b506101ab6104e5565b6040516101b89190610c07565b60405180910390f35b6101c961050f565b005b6101d3610661565b005b3480156101e157600080fd5b506101fc60048036038101906101f79190610c4e565b6108ef565b6040516102099190610b8d565b60405180910390f35b60008060008373ffffffffffffffffffffffffffffffffffffffff1673ffffffffffffffffffffffffffffffffffffffff168152602001908152602001600020549050919050565b6000600254905090565b7f000000000000000000000000000000000000000000000000000000000000000073ffffffffffffffffffffffffffffffffffffffff163373ffffffffffffffffffffffffffffffffffffffff16146102e9576040517f579610db00000000000000000000000000000000000000000000000000000000815260040160405180910390fd5b60005b6001805490508110156103945760006001828154811061030f5761030e610c7b565b5b9060005260206000200160009054906101000a900473ffffffffffffffffffffffffffffffffffffffff16905060008060008373ffffffffffffffffffffffffffffffffffffffff1673ffffffffffffffffffffffffffffffffffffffff1681526020019081526020016000208190555050808061038c90610cd9565b9150506102ec565b50600067ffffffffffffffff8111156103b0576103af610d22565b5b6040519080825280602002602001820160405280156103de5781602001602082028036833780820191505090505b50600190805190602001906103f4929190610a13565b5060003373ffffffffffffffffffffffffffffffffffffffff164760405161041b90610d82565b60006040518083038185875af1925050503d8060008114610458576040519150601f19603f3d011682016040523d82523d6000602084013e61045d565b606091505b50509050806104a1576040517f08c379a000000000000000000000000000000000000000000000000000000000815260040161049890610df4565b60405180910390fd5b50565b6000600180549050905090565b670de0b6b3a764000081565b60007f0000000000000000000000000000000000000000000000000000000000000000905090565b6000600360009054906101000a900473ffffffffffffffffffffffffffffffffffffffff16905090565b670de0b6b3a764000061054d600360009054906101000a900473ffffffffffffffffffffffffffffffffffffffff163461093790919063ffffffff16565b101561058e576040517f08c379a000000000000000000000000000000000000000000000000000000000815260040161058590610e60565b60405180910390fd5b346000803373ffffffffffffffffffffffffffffffffffffffff1673ffffffffffffffffffffffffffffffffffffffff16815260200190815260200160002060008282546105dc9190610e80565b9250508190555034600260008282546105f59190610e80565b925050819055506001339080600181540180825580915050600190039060005260206000200160009091909190916101000a81548173ffffffffffffffffffffffffffffffffffffffff021916908373ffffffffffffffffffffffffffffffffffffffff160217905550565b7f000000000000000000000000000000000000000000000000000000000000000073ffffffffffffffffffffffffffffffffffffffff163373ffffffffffffffffffffffffffffffffffffffff16146106e6576040517f579610db00000000000000000000000000000000000000000000000000000000815260040160405180910390fd5b6000600180548060200260200160405190810160405280929190818152602001828054801561076a57602002820191906000526020600020905b8160009054906101000a900473ffffffffffffffffffffffffffffffffffffffff1673ffffffffffffffffffffffffffffffffffffffff1681526020019060010190808311610720575b5050505050905060005b81518110156107f457600082828151811061079257610791610c7b565b5b6020026020010151905060008060008373ffffffffffffffffffffffffffffffffffffffff1673ffffffffffffffffffffffffffffffffffffffff168152602001908152602001600020819055505080806107ec90610cd9565b915050610774565b50600067ffffffffffffffff8111156108105761080f610d22565b5b60405190808252806020026020018201604052801561083e5781602001602082028036833780820191505090505b5060019080519060200190610854929190610a13565b5060007f000000000000000000000000000000000000000000000000000000000000000073ffffffffffffffffffffffffffffffffffffffff164760405161089b90610d82565b60006040518083038185875af1925050503d80600081146108d8576040519150601f19603f3d011682016040523d82523d6000602084013e6108dd565b606091505b50509050806108eb57600080fd5b5050565b60006001828154811061090557610904610c7b565b5b9060005260206000200160009054906101000a900473ffffffffffffffffffffffffffffffffffffffff169050919050565b60008061094383610973565b90506000670de0b6b3a7640000858361095c9190610ed6565b6109669190610f5f565b9050809250505092915050565b6000808273ffffffffffffffffffffffffffffffffffffffff1663feaf968c6040518163ffffffff1660e01b815260040160a06040518083038186803b1580156109bc57600080fd5b505afa1580156109d0573d6000803e3d6000fd5b505050506040513d601f19601f820116820180604052508101906109f4919061101d565b5050509150506402540be40081610a0b9190611098565b915050919050565b828054828255906000526020600020908101928215610a8c579160200282015b82811115610a8b5782518260006101000a81548173ffffffffffffffffffffffffffffffffffffffff021916908373ffffffffffffffffffffffffffffffffffffffff16021790555091602001919060010190610a33565b5b509050610a999190610a9d565b5090565b5b80821115610ab6576000816000905550600101610a9e565b5090565b600080fd5b600073ffffffffffffffffffffffffffffffffffffffff82169050919050565b6000610aea82610abf565b9050919050565b610afa81610adf565b8114610b0557600080fd5b50565b600081359050610b1781610af1565b92915050565b600060208284031215610b3357610b32610aba565b5b6000610b4184828501610b08565b91505092915050565b6000819050919050565b610b5d81610b4a565b82525050565b6000602082019050610b786000830184610b54565b92915050565b610b8781610adf565b82525050565b6000602082019050610ba26000830184610b7e565b92915050565b6000819050919050565b6000610bcd610bc8610bc384610abf565b610ba8565b610abf565b9050919050565b6000610bdf82610bb2565b9050919050565b6000610bf182610bd4565b9050919050565b610c0181610be6565b82525050565b6000602082019050610c1c6000830184610bf8565b92915050565b610c2b81610b4a565b8114610c3657600080fd5b50565b600081359050610c4881610c22565b92915050565b600060208284031215610c6457610c63610aba565b5b6000610c7284828501610c39565b91505092915050565b7f4e487b7100000000000000000000000000000000000000000000000000000000600052603260045260246000fd5b7f4e487b7100000000000000000000000000000000000000000000000000000000600052601160045260246000fd5b6000610ce482610b4a565b91507fffffffffffffffffffffffffffffffffffffffffffffffffffffffffffffffff821415610d1757610d16610caa565b5b600182019050919050565b7f4e487b7100000000000000000000000000000000000000000000000000000000600052604160045260246000fd5b600081905092915050565b50565b6000610d6c600083610d51565b9150610d7782610d5c565b600082019050919050565b6000610d8d82610d5f565b9150819050919050565b600082825260208201905092915050565b7f43616c6c206661696c6564000000000000000000000000000000000000000000600082015250565b6000610dde600b83610d97565b9150610de982610da8565b602082019050919050565b60006020820190508181036000830152610e0d81610dd1565b9050919050565b7f596f75206e65656420746f207370656e64206d6f726520455448210000000000600082015250565b6000610e4a601b83610d97565b9150610e5582610e14565b602082019050919050565b60006020820190508181036000830152610e7981610e3d565b9050919050565b6000610e8b82610b4a565b9150610e9683610b4a565b9250827fffffffffffffffffffffffffffffffffffffffffffffffffffffffffffffffff03821115610ecb57610eca610caa565b5b828201905092915050565b6000610ee182610b4a565b9150610eec83610b4a565b9250817fffffffffffffffffffffffffffffffffffffffffffffffffffffffffffffffff0483118215151615610f2557610f24610caa565b5b828202905092915050565b7f4e487b7100000000000000000000000000000000000000000000000000000000600052601260045260246000fd5b6000610f6a82610b4a565b9150610f7583610b4a565b925082610f8557610f84610f30565b5b828204905092915050565b600069ffffffffffffffffffff82169050919050565b610faf81610f90565b8114610fba57600080fd5b50565b600081519050610fcc81610fa6565b92915050565b6000819050919050565b610fe581610fd2565b8114610ff057600080fd5b50565b60008151905061100281610fdc565b92915050565b60008151905061101781610c22565b92915050565b600080600080600060a0868803121561103957611038610aba565b5b600061104788828901610fbd565b955050602061105888828901610ff3565b945050604061106988828901611008565b935050606061107a88828901611008565b925050608061108b88828901610fbd565b9150509295509295909350565b60006110a382610fd2565b91506110ae83610fd2565b9250827f7fffffffffffffffffffffffffffffffffffffffffffffffffffffffffffffff04821160008413600084131616156110ed576110ec610caa565b5b817f8000000000000000000000000000000000000000000000000000000000000000058312600084126000841316161561112a57611129610caa565b5b827f8000000000000000000000000000000000000000000000000000000000000000058212600084136000841216161561116757611166610caa565b5b827f7fffffffffffffffffffffffffffffffffffffffffffffffffffffffffffffff05821260008412600084121616156111a4576111a3610caa565b5b82820290509291505056fea2646970667358221220260fea31ba5dedced7aa37e8268f8994d779b3c6ffeb7fc405179f925290a8b164736f6c63430008080033",
  "devdoc": {
    "author": "julienbrs, credit to FreeCodeCamp & Patric Collins",
    "details": "This implements price feed in our library",
    "kind": "dev",
    "methods": {},
    "title": "A contract for crowd funding",
    "version": 1
  },
  "userdoc": {
    "kind": "user",
    "methods": {
      "fund()": {
        "notice": "Funding the contract"
      }
    },
    "notice": "You can use this contract for basic crowd funding and keeping tracks of donators",
    "version": 1
  },
  "storageLayout": {
    "storage": [
      {
        "astId": 59,
        "contract": "contracts/FundMe.sol:FundMe",
        "label": "s_addressToAmountFunded",
        "offset": 0,
        "slot": "0",
        "type": "t_mapping(t_address,t_uint256)"
      },
      {
        "astId": 62,
        "contract": "contracts/FundMe.sol:FundMe",
        "label": "s_funders",
        "offset": 0,
        "slot": "1",
        "type": "t_array(t_address)dyn_storage"
      },
      {
        "astId": 64,
        "contract": "contracts/FundMe.sol:FundMe",
        "label": "amountFounded",
        "offset": 0,
        "slot": "2",
        "type": "t_uint256"
      },
      {
        "astId": 76,
        "contract": "contracts/FundMe.sol:FundMe",
        "label": "s_priceFeed",
        "offset": 0,
        "slot": "3",
        "type": "t_contract(AggregatorV3Interface)45"
      }
    ],
    "types": {
      "t_address": {
        "encoding": "inplace",
        "label": "address",
        "numberOfBytes": "20"
      },
      "t_array(t_address)dyn_storage": {
        "base": "t_address",
        "encoding": "dynamic_array",
        "label": "address[]",
        "numberOfBytes": "32"
      },
      "t_contract(AggregatorV3Interface)45": {
        "encoding": "inplace",
        "label": "contract AggregatorV3Interface",
        "numberOfBytes": "20"
      },
      "t_mapping(t_address,t_uint256)": {
        "encoding": "mapping",
        "key": "t_address",
        "label": "mapping(address => uint256)",
        "numberOfBytes": "32",
        "value": "t_uint256"
      },
      "t_uint256": {
        "encoding": "inplace",
        "label": "uint256",
        "numberOfBytes": "32"
      }
    }
  }
}